S00F00004C4544437562652E73726563C1
S11300000C946D000C948A000C94490A0C948A0098
S11300100C948A000C948A000C948A000C948A0034
S11300200C948A000C94FF000C948A000C948A00AF
S11300300C948A000C948A000C94C90C0C948A00C9
S11300400C948A000C948A000C948A000C948A0004
S11300500C948A000C948A000C948A000C948A00F4
S11300600C948A000C948A00A800AB00AE00B10086
S1130070BB00BE00C100C400C700A800AB00AE00B6
S1130080B100BB00BE00C100C400C70012091508BE
S1130090200835084A085F08740889089E08B308D0
S11300A0C808DD08F20807092C0EFA0DFC0DFE0D38
S11300B0000E020E040E060E080E0A0E0C0E0E0E94
S11300C0100E120E140E160E180E1A0E1C0E1E0E04
S11300D0200E220E240E260E280E11241FBECFEF52
S11300E0D8E0DEBFCDBF11E0A0E0B1E0EAE5FEE17B
S11300F002C005900D92AE39B107D9F722E0AEE9FE
S1130100B1E001C01D92AC3EB207E1F70E94500D70
S11301100C942B0F0C940000E82F80939E01809187
S11301209F01E817B9F1A8ECB1E025E432E01D9293
S1130130A217B307E1F7E0939F018E2F90E0FC0133
S11301403197E930F10588F5EC5CFF4F0C94520EC1
S11301500E94220708950E94420708950E94F90709
S11301600895E8ECF1E025E432E081E08193E217C0
S1130170F307E1F708950E940E0408950E942001F8
S113018008950E94670408950E940C0508950E9432
S1130190070608958E2F90E0FC013197E930F105B0
S11301A020F4E35CFF4F0C94520E089580919E015D
S11301B0833099F028F4813051F0823059F0089559
S11301C0883089F0893091F0863091F409C00E941A
S11301D01C0708950E94DF0708950E94910908955D
S11301E00E94080408950E94FB0508950E941007C8
S11301F00895E82FF0E0E853FE4F608308951F92BE
S11302000F920FB60F9211248F93809146028F5F45
S113021080934602863029F4809145028F5F809353
S11302204502809145028A3029F48091C4028F5F8F
S11302308093C4028F910F900FBE0F901F9018955A
S1130240809104018E37A0F00E94B80E62E370E042
S11302500E943E0E855B809304010E94B80E6EE1FD
S113026070E00E943E0E90910F01890F8093A201CD
S11302708091A20181508093A2010E94B80E67E090
S113028070E00E943E0E833038F4E0910401F0E007
S1130290E853FE4F108207C0E0910401F0E0E853F8
S11302A0FE4F81E080838091A201811115C0A4E0FA
S11302B0B1E08C91E82FF0E0E853FE4F10828951B1
S11302C08C930E94B80E6EE170E00E943E0E9091F5
S11302D00F01890F8093A201809105018E37A0F050
S11302E00E94B80E62E370E00E943E0E855B80932C
S11302F005010E94B80E6EE170E00E943E0E9091DE
S11303000F01890F8093160180911601815080930B
S113031016010E94B80E67E070E00E943E0E833022
S113032038F4E0910501F0E0E853FE4F108207C075
S1130330E0910501F0E0E853FE4F81E08083809175
S11303401601811118C0A4E0B1E011968C911197A7
S1130350E82FF0E0E853FE4F1082895111968C93F8
S11303600E94B80E6EE170E00E943E0E90910F0163
S1130370890F8093160180910C01882309F49FC092
S1130380809106018E37A0F00E94B80E62E370E0FF
S11303900E943E0E855B809306010E94B80E6EE1BA
S11303A070E00E943E0E90910F01890F8093150119
S11303B0809115018150809315010E94B80E67E069
S11303C070E00E943E0E833038F4E0910601F0E0C4
S11303D0E853FE4F108207C0E0910601F0E0E853B5
S11303E0FE4F81E0808380911501811118C0A4E043
S11303F0B1E012968C911297E82FF0E0E853FE4F8B
S11304001082895112968C930E94B80E6EE170E0AE
S11304100E943E0E90910F01890F809315018091E7
S113042007018E37A0F00E94B80E62E370E00E94CC
S11304303E0E855B809307010E94B80E6EE170E06A
S11304400E943E0E90910F01890F809314018091B8
S113045014018150809314010E94B80E67E070E08B
S11304600E943E0E833038F4E0910701F0E0E85337
S1130470FE4F108207C0E0910701F0E0E853FE4F01
S113048081E0808380911401811128C0A4E0B1E04F
S113049013968C911397E82FF0E0E853FE4F1082E7
S11304A0895113968C930E94B80E6EE170E00E94FD
S11304B03E0E90910F01890F809314010FC0A4E0A8
S11304C0B1E01296EC911297F0E0E853FE4F1082DF
S11304D01396EC91F0E0E853FE4F108280910E01E8
S11304E0882309F49FC0809108018E37A0F00E94F0
S11304F0B80E62E370E00E943E0E855B80930801B3
S11305000E94B80E6EE170E00E943E0E90910F01C1
S1130510890F8093130180911301815080931301FB
S11305200E94B80E67E070E00E943E0E833038F4FB
S1130530E0910801F0E0E853FE4F108207C0E0911B
S11305400801F0E0E853FE4F81E0808380911301BD
S1130550811118C0A4E0B1E014968C911497E82F8F
S1130560F0E0E853FE4F1082895114968C930E9458
S1130570B80E6EE170E00E943E0E90910F01890F5B
S113058080931301809109018E37A0F00E94B80E68
S113059062E370E00E943E0E855B809309010E9435
S11305A0B80E6EE170E00E943E0E90910F01890F2B
S11305B080931201809112018150809312010E9454
S11305C0B80E67E070E00E943E0E833038F4E0918C
S11305D00901F0E0E853FE4F108207C0E0910901E1
S11305E0F0E0E853FE4F81E0808380911201811195
S11305F028C0A4E0B1E015968C911597E82FF0E09F
S1130600E853FE4F1082895115968C930E94B80EC0
S11306106EE170E00E943E0E90910F01890F80936D
S113062012010FC0A4E0B1E01496EC911497F0E02D
S1130630E853FE4F10821596EC91F0E0E853FE4F1C
S1130640108280910D01882309F49FC080910A01D2
S11306508E37A0F00E94B80E62E370E00E943E0E56
S1130660855B80930A010E94B80E6EE170E00E94DF
S11306703E0E90910F01890F809311018091110119
S11306808150809311010E94B80E67E070E00E94CF
S11306903E0E833038F4E0910A01F0E0E853FE4F57
S11306A0108207C0E0910A01F0E0E853FE4F81E0B8
S11306B0808380911101811118C0A4E0B1E01696E5
S11306C08C911697E82FF0E0E853FE4F1082895181
S11306D016968C930E94B80E6EE170E00E943E0E56
S11306E090910F01890F8093110180910B018E3736
S11306F0A0F00E94B80E62E370E00E943E0E855B9B
S113070080930B010E94B80E6EE170E00E943E0ED1
S113071090910F01890F80931001809110018150F5
S1130720809310010E94B80E67E070E00E943E0EB4
S1130730833038F4E0910B01F0E0E853FE4F10826F
S113074007C0E0910B01F0E0E853FE4F81E08083A5
S113075080911001811128C0A4E0B1E017968C911A
S11307601797E82FF0E0E853FE4F1082895117964F
S11307708C930E94B80E6EE170E00E943E0E909140
S11307800F01890F809310010FC0A4E0B1E0169609
S1130790EC911697F0E0E853FE4F10821796EC9117
S11307A0F0E0E853FE4F10828091A0019091A101E6
S11307B0803127E2920731F51092A1011092A00135
S11307C00E94B80E6BE070E00E943E0E833040F44D
S11307D081E080930C0110920D0110920E01089596
S11307E0893040F481E080930E0180930C011092D3
S11307F00D01089581E080930D0180930E01809393
S11308000C01089501969093A1018093A00108958D
S113081080910F01825E80930F0108958F929F92C1
S1130820AF92BF92CF92DF92EF92FF920F931F93FA
S1130830CF93DF93809117018F30B9F51092170190
S113084005EC12E0C4EDD2E00F2EF4EDAF2EF2E091
S1130850BF2EF02D7E0148010F2EFDE7CF2ED12CA7
S1130860F02D60E0F40181914F010E94F9000E9493
S1130870B80EB6010E943E0EF70181937F018A14DF
S11308809B0479F70F2EF3EECF2EF2E0DF2EF02D3E
S11308907E0161E089910E94F900F7018081F801ED
S11308A081938F01CC15DD0599F7809117018F5F36
S11308B080931701DF91CF911F910F91FF90EF90DB
S11308C0DF90CF90BF90AF909F908F900895EF925C
S11308D0FF920F931F93CF93DF93CDB7DEB76A9741
S11308E00FB6F894DEBF0FBECDBF03EE12E0F801E1
S11308F080819FEF980F998391E0980F9A8394E0F9
S1130900980F9B8395E0980F9C8396E0980F9D83A6
S11309109AEF980F9E839BEF980F9F839CEF980FFD
S1130920988797EE980F998796EE980F9A8798EE86
S1130930980F9B879BEE980F9C879CEE980F9D8742
S11309409DEE980F9E8791EE980F9F8792EE980FD9
S1130950988B93EE980F998B99E1980F9A8B9AE163
S1130960980F9B8B98E1980F9C8B9DE1980F9D8B22
S11309709EE1980F9E8B9FE1980F9F8B93E1980FB8
S1130980988F94E1980F998F8B5E8A8F0E94B80E8E
S11309906AE170E00E943E0EFE01E80FF91FF1804B
S11309A0F8018181F8120BC08F2D90E001966AE165
S11309B070E00E943E0EFE01E80FF91FF18003EE85
S11309C012E060E0F80184810E94F900F80183815B
S11309D08483828183838181828380818183F08285
S11309E00F2EF8EEEF2EF2E0FF2EF02D61E0F8016D
S11309F081918F010E94F9000E151F05B9F76A96BF
S1130A000FB6F894DEBF0FBECDBFDF91CF911F911B
S1130A100F91FF90EF900895CF93DF938091A501FC
S1130A208F3009F0E0C01092A5018091190188234C
S1130A3081F0109219010E94B80E6DE770E00E94D7
S1130A403E0E8093A4019927FC01E853FE4F81E0F8
S1130A508083C6E0D0E00E94B80EBE010E943E0E24
S1130A60992782309105D9F02CF4009751F0019721
S1130A7079F030C08430910501F1C4F0059721F17B
S1130A8029C08091A4010E94B70D8093A30122C0C4
S1130A908091A4010E94DD0D8093A3011BC080916D
S1130AA0A4010E94850D8093A30114C08091A40128
S1130AB00E94670D8093A3010DC08091A4010E9440
S1130AC0770D8093A30106C08091A4010E94D70DE5
S1130AD08093A3018091A3018E3781F0282F30E009
S1130AE0F901E853FE4F9081913041F08093A401C5
S1130AF0F901E853FE4F81E0808375C08091A40121
S1130B000E94B70D8E3761F08091A4010E94B70D49
S1130B10E82FF0E0E853FE4F8081813009F09BCF4D
S1130B208091A4010E94850D8E3761F08091A4010B
S1130B300E94850DE82FF0E0E853FE4F808181305C
S1130B4009F089CF8091A4010E94770D8E3761F05E
S1130B508091A4010E94770DE82FF0E0E853FE4F46
S1130B608081813009F077CF8091A4010E94DD0D4E
S1130B708E3761F08091A4010E94DD0DE82FF0E032
S1130B80E853FE4F8081813009F065CF8091A40144
S1130B900E94670D8E3761F08091A4010E94670D59
S1130BA0E82FF0E0E853FE4F8081813009F053CF05
S1130BB08091A4010E94D70D8E3761F08091A40129
S1130BC00E94D70DE82FF0E0E853FE4F808181307A
S1130BD009F041CF0E943D0DE091A401F0E0E853FB
S1130BE0FE4F81E080838091A5018F5F8093A501F2
S1130BF0DF91CF91089580911801815F843618F4B4
S1130C008093180108958AE0809318010895CF9382
S1130C10DF939091AE0180911A019813F9C010925C
S1130C20AE0180911B01882391F010921B010E9458
S1130C30B80E6DE770E00E943E0E8093AD01E6EAC7
S1130C40F1E0808381838283838384838583C6E008
S1130C50D0E00E94B80EBE010E943E0E9927823059
S1130C609105D9F02CF4009751F0019779F030C038
S1130C708430910501F1C4F0059721F129C08091D8
S1130C80AD010E94B70D8093AC0122C08091AD01EB
S1130C900E94DD0D8093AC011BC08091AD010E94C8
S1130CA0850D8093AC0114C08091AD010E94670D45
S1130CB08093AC010DC08091AD010E94770D8093AB
S1130CC0AC0106C08091AD010E94D70D8093AC01A8
S1130CD08091AC018E37A9F0E82FF0E0E853FE4F85
S1130CE09081913071F08093AD01EBEAF1E026EA56
S1130CF031E092919183E217F307D9F78093A6012B
S1130D0078C08091AD010E94B70D8E3761F080915B
S1130D10AD010E94B70DE82FF0E0E853FE4F80814B
S1130D20813009F096CF8091AD010E94850D8E37F8
S1130D3061F08091AD010E94850DE82FF0E0E85349
S1130D40FE4F8081813009F084CF8091AD010E94F3
S1130D50770D8E3761F08091AD010E94770DE82FF9
S1130D60F0E0E853FE4F8081813009F072CF80912A
S1130D70AD010E94DD0D8E3761F08091AD010E94BE
S1130D80DD0DE82FF0E0E853FE4F8081813009F05B
S1130D9060CF8091AD010E94670D8E3761F0809124
S1130DA0AD010E94670DE82FF0E0E853FE4F80810B
S1130DB0813009F04ECF8091AD010E94D70D8E375E
S1130DC061F08091AD010E94D70DE82FF0E0E85367
S1130DD0FE4F8081813009F03CCF0E943D0D80910F
S1130DE0AD01E6EAF1E08083818382838383848397
S1130DF085830E943D0DA6EAB1E02CEA31E081E052
S1130E00ED91F0E0E853FE4F8083A217B307C1F7DA
S1130E108091AE018F5F8093AE01DF91CF910895F1
S1130E2080911A01815F843618F480931A01089521
S1130E308AE080931A01089580911C01815F809358
S1130E401C0108958091AF0190911C019817B0F492
S1130E508091B001E82FF0E0E853FE4FDF011197D5
S1130E601C9291E090831092AF018F5F8E3719F03E
S1130E708093B00108951092B00108958F5F80931C
S1130E80AF010895AF92BF92DF92EF92FF920F935A
S1130E901F93CF93DF938091B2018F5F8093B20150
S1130EA090911D01891381C0A8ECB1E085E492E022
S1130EB0FD011192E817F907E1F757C0E9015993C9
S1130EC09E01D5E0ED16F10414F4E501488377237F
S1130ED00CF040833196DFEFAD1ABD0AE017F1073D
S1130EE069F721E02D0D2093B3012530D9F521E0D8
S1130EF02093B10124E02093B30102C0213091F585
S1130F001D928A179B07E1F71091B301212F30E05E
S1130F1049E1149FD0011124B9016F5F7F4F215023
S1130F203109ED01C853DE4FFD01E155FE4FAF51CC
S1130F30BE4FAE0191E082E09993653071050CF4E7
S1130F408C9333230CF0808331961196E417F507C4
S1130F5099F711501093B301111104C01092B1010B
S1130F601092B3011092B20120C02091B10121115D
S1130F70C5CFD090B3016D2D70E059E1D59EE0014D
S1130F8011247B012FEFE21AF20A615071099E01CC
S1130F9028533E4FFE01E155FE4FAE014F515E4FC7
S1130FA05A01890151E042E089CFDF91CF911F912D
S1130FB00F91FF90EF90DF90BF90AF9008958091D4
S1130FC01D01865F80931D010895CF93DF93909157
S1130FD0B701992359F0C0E0D0E00E94E30D2196B7
S1130FE02091B70130E0C217D307BCF3DF91CF9152
S1130FF00895EF92FF921F93CF93DF939091B801DE
S113100080911E01981382C11092B8010E943D0D77
S1131010E091B401F091B5013196EE30F10508F09C
S11310200BC1EA5BFF4F0C94520E8091B9010E94F0
S1131030E507E82FF0E0E853FE4F81E08083FCC031
S1131040C8E9D1E00F2EFBE9EF2EF1E0FF2EF02DE1
S113105011E089910E94E507E82FF0E0E853FE4F84
S11310601083CE15DF05A9F7E7C0C2E9D1E00F2E42
S1131070F8E9EF2EF1E0FF2EF02D11E089910E94A6
S1131080E507E82FF0E0E853FE4F1083CE15DF05A7
S1131090A9F7D2C0C8E8D1E00F2EF2E9EF2EF1E0B3
S11310A0FF2EF02D11E089910E94E507E82FF0E072
S11310B0E853FE4F1083EC16FD06A9F7BDC0C9E73F
S11310C0D1E00F2EF8E8EF2EF1E0FF2EF02D11E025
S11310D089910E94E507E82FF0E0E853FE4F108362
S11310E0EC16FD06A9F7A8C0C7E6D1E00F2EF9E774
S11310F0EF2EF1E0FF2EF02D11E089910E94E5071B
S1131100E82FF0E0E853FE4F1083CE15DF05A9F772
S113111093C0C4E5D1E00F2EF7E6EF2EF1E0FF2EE9
S1131120F02D11E089910E94E507E82FF0E0E853E3
S1131130FE4F1083CE15DF05A9F77EC0C2E4D1E0CF
S11311400F2EF4E5EF2EF1E0FF2EF02D11E0899142
S11311500E94E507E82FF0E0E853FE4F1083EC16F9
S1131160FD06A9F769C0C3E3D1E00F2EF2E4EF2E28
S1131170F1E0FF2EF02D11E089910E94E507E82FA0
S1131180F0E0E853FE4F1083EC16FD06A9F754C0B7
S1131190C9E2D1E00F2EF3E3EF2EF1E0FF2EF02DA4
S11311A011E089910E94E507E82FF0E0E853FE4F33
S11311B01083EC16FD06A9F73FC0C3E2D1E00F2E61
S11311C0F9E2EF2EF1E0FF2EF02D11E089910E945B
S11311D0E507E82FF0E0E853FE4F1083EC16FD0618
S11311E0A9F72AC0C0E2D1E00F2EF3E2EF2EF1E01E
S11311F0FF2EF02D11E089910E94E507E82FF0E021
S1131200E853FE4F1083EC16FD06A9F715C0809134
S11312101F010E94E507E82FF0E0E853FE4F81E04C
S113122080830AC08091B9010E94E507E82FF0E0AD
S1131230E853FE4F81E080838091B601811134C070
S11312408091B4019091B50101969093B50180937A
S1131250B4010D9709F05AC00E94B80E81709078BD
S1131260992324F401978E6F9F6F01968093B601A2
S11312700E94B80E83709078992324F401978C6FA0
S11312809F6F01968093B7018091B601882339F04E
S11312908CE090E09093B5018093B40137C0109234
S11312A0B5011092B40132C08091B4019091B5019E
S11312B001979093B5018093B401019639F50E948A
S11312C0B80E81709078992324F401978E6F9F6FE4
S11312D001968093B6010E94B80E8370907899238A
S11312E024F401978C6F9F6F01968093B7018091CE
S11312F0B601882339F08CE090E09093B501809397
S1131300B40104C01092B5011092B4018091B801E7
S11313108F5F8093B801DF91CF911F91FF90EF9081
S1131320089580911E01865F893718F480931E0109
S1131330089589E180931E01089580919B01089589
S11313408FEF8BB908958091BB01813031F41092F5
S1131350BB01F8948EE080939B018091C0018130A1
S113136021F40E94D6001092C0018091C101813005
S113137069F480919B018F5F8A3018F480939B01FC
S113138003C081E080939B011092C1018091BF0151
S1131390813061F480919B01815019F080939B010D
S11313A003C089E080939B011092BF0108954A997C
S11313B00EC08091BC01811110C081E08093BF01F7
S11313C08093BC014D9909C08093BB0106C08091F4
S11313D0BC01813011F41092BC014D990EC0809172
S11313E0BE01811110C081E08093C1018093BE01D0
S11313F04A9909C08093BB0106C08091BE01813027
S113140011F41092BE014B9936C08091BD01811137
S113141005C081E08093C0018093BD018091BA0131
S11314208F5F8093BA018F3071F5E99AE9E6F0E0B5
S1131430808188608083EEE6F0E080818D7F808308
S113144080E00E94390E80E00E94390E80E00E9404
S1131450390E80E00E94390E5F9A5F9818B883B7FE
S1131460817F846083BF83B7816083BF889583B79E
S11314708E7F83BF08958091BD01813021F4109245
S1131480BD011092BA0108950E94D7090E94A309D0
S113149008951F920F920FB60F9211248F939F936A
S11314A0EF93FF938FE99FE00197F1F700C00000ED
S11314B04B9905C0EEE6F0E0808182608083FF9165
S11314C0EF919F918F910F900FBE0F901F901895E1
S11314D084B5826084BD85B5836085BDEEE6F0E0A9
S11314E080818260808384EB87BD08958091C401EC
S11314F0813019F41092C401089580E00895809118
S1131500C301813019F41092C301089580E0089555
S11315103F924F925F926F927F928F929F92AF927F
S1131520BF92CF92DF92EF92FF920F931F93CF93CC
S1131530DF931092E9021092EB021092E8021092EB
S1131540EA02823091F028F4882341F0813049F096
S113155017C0833071F0843081F012C01092C6013C
S11315600FC089E18093C6010BC082E38093C6015A
S113157007C08BE48093C60103C084E68093C60150
S11315808091C60190E0FC01E853FE4FD081D13038
S113159019F421E02093E802FC01E853FE4FC181D5
S11315A0C13019F420E82093EA02FC01E853FE4F0D
S11315B0B281B13029F42091EA0220642093EA0236
S11315C0FC01E853FE4FA381A13029F42091EA02E3
S11315D020622093EA02FC01E853FE4F448021E09C
S11315E0421205C02091EA0220612093EA029C0184
S11315F028533E4FF9013580F1E03F1205C0209198
S1131600EA0228602093EA029C0128533E4FF90124
S11316107681713029F42091EA0224602093EA0251
S11316209C0128533E4FF9016781613029F42091D0
S1131630EA0222602093EA029C0128533E4FF901FA
S11316405085513029F42091EA0221602093EA0266
S11316509C0128533E4FF9014185413019F420E89B
S11316602093E9029C0128533E4FF9013285313021
S113167029F42091E90220642093E9028C010853A3
S11316801E4FF8012385213029F41091E9021062DC
S11316901093E9028C0108531E4FF801F484F1E021
S11316A0FF1205C01091E90210611093E9028C0148
S11316B008531E4FF801E584F1E0EF1205C01091C4
S11316C0E90218601093E9028C0108531E4FF801D7
S11316D0D684F1E0DF1205C01091E9021460109382
S11316E0E9028C0108531E4FF801C784F1E0CF12C0
S11316F005C01091E90212601093E9028C010853AD
S11317001E4FF801B088F1E0BF1205C01091E90244
S113171011601093E9028C0108531E4FF801A1884F
S1131720F1E0AF1203C010E81093EB028C010853F0
S11317301E4FF8019288F1E09F1205C01091EB0250
S113174010641093EB028C0108531E4FF801838838
S1131750F1E08F1205C01091EB0210621093EB02BE
S11317608C0108531E4FF8017488F1E07F1205C004
S11317701091EB0210611093EB028C0108531E4F81
S1131780F8016588F1E06F1205C01091EB02186052
S11317901093EB028C0108531E4FF8015688F1E0B8
S11317A05F1205C01091EB0214601093EB028C01E0
S11317B008531E4FF8011789113029F40091EB02E8
S11317C002600093EB0288539E4FFC01908D913090
S11317D029F48091EB0281608093EB028091C50132
S11317E0813009F0BDC0D13029F48091E8028160D4
S11317F08093E802C13029F48091EA0280688093E2
S1131800EA02B13029F48091EA0280648093EA020A
S1131810A13029F48091EA0280628093EA02F1E027
S11318204F1205C08091EA0280618093EA0281E050
S1131830381205C08091EA0288608093EA02713010
S113184029F48091EA0284608093EA02613029F4E9
S11318508091EA0282608093EA02513029F48091F7
S1131860EA0281608093EA02413029F48091E9021E
S113187080688093E902313029F48091E902806420
S11318808093E902213029F48091E90280628093F7
S1131890E902E1E0FE1205C08091E90280618093D3
S11318A0E902F1E0EF1205C08091E90288608093BB
S11318B0E90221E0D21205C08091E902846080939C
S11318C0E90281E0C81205C08091E9028260809338
S11318D0E902E1E0BE1205C08091E90281608093D3
S11318E0E902F1E0AF1205C08091EB0280688093B9
S11318F0EB0221E0921205C08091EB028064809398
S1131900EB0281E0881205C08091EB028062809333
S1131910EB02E1E07E1205C08091EB0280618093CE
S1131920EB02F1E06F1205C08091EB0288608093B6
S1131930EB0221E0521205C08091EB028460809397
S1131940EB02113029F48091EB0282608093EB0268
S1131950913059F48091EB0281608093EB0205C0D1
S11319608F5F8093C501823011F41092C501DF911D
S1131970CF911F910F91FF90EF90DF90CF90BF9088
S1131980AF909F908F907F906F905F904F903F901B
S113199008951F920F920FB60F9211242F933F9325
S11319A04F935F936F937F938F939F93AF93BF9363
S11319B0EF93FF938091C201833031F41092C201FE
S11319C081E08093C40103C08F5F8093C201809142
S11319D09C01863931F410929C0181E08093C3010B
S11319E003C08F5F80939C0118B88091C7010E9447
S11319F0880A8091E8020E94390E8091EA020E94CE
S1131A00390E8091E9020E94390E8091EB020E9406
S1131A10390E5F9A5F988091C701823071F028F483
S1131A20882379F0813059F00DC0833021F084305F
S1131A3049F4449A07C0439A05C0429A03C0419AA4
S1131A4001C0409A8091C7018F5F853019F080935F
S1131A50C70102C01092C701FF91EF91BF91AF91EE
S1131A609F918F917F916F915F914F913F912F91B2
S1131A700F900FBE0F901F901895E8ECF1E085E4ED
S1131A8092E01192E817F907E1F7089584B18660AE
S1131A9084B98AB1806C8AB9209A8FEF87B9089586
S1131AA00E94460D0E94680A0E942F0E0E94A009FF
S1131AB078940E947F0A81110E94440A0E94760A47
S1131AC08823B9F30E949D090E948C00F2CF9DECFB
S1131AD0899F912D112496959695292F220F220FD7
S1131AE0920F891711F0815008958EE70895282FD9
S1131AF090E0019665E070E00E943E0E892B19F09B
S1131B0081E0820F08958EE70895853030F18931A0
S1131B1038F0282F30E02951310925303105FCF007
S1131B20823338F0282F30E0225331092530310533
S1131B30C4F08B3438F0282F30E02B543109253091
S1131B4031058CF0843638F0282F30E024563109E2
S1131B502530310554F0855008958EE708958EE7B9
S1131B6008958EE708958EE708958EE708959CEE14
S1131B70980F953090F093ED980F953080F09AEB94
S1131B80980F953070F091EA980F953060F098E8CE
S1131B90980F953050F08B5F08958EE708958EE787
S1131BA008958EE708958EE708958EE708958436A4
S1131BB010F4875E08958EE70895893110F08951F5
S1131BC008958EE7089549E2849F412D1124E42F5E
S1131BD0E695E695982F29E1E29F90191124891B37
S1131BE0492F50E049315105A8F5FA01EC5AFF4F4D
S1131BF00C94520E99E031C09EE02FC093E12DC0A9
S1131C0098E12BC093E029C098E027C09DE025C04F
S1131C1092E123C097E121C092E01FC097E01DC06C
S1131C209CE01BC091E119C096E117C091E015C07A
S1131C3096E013C09BE011C090E10FC095E10DC088
S1131C4090E00BC095E009C09AE007C09FE005C092
S1131C5094E103C09EE701C094E0890F089584B124
S1131C60886284B985B1886285B98CB583658CBD79
S1131C7008958EBD0DB407FEFDCF089597FB072E82
S1131C8016F4009407D077FD09D00E94580E07FC83
S1131C9005D03EF4909581959F4F08957095619578
S1131CA07F4F0895EE0FFF1F0590F491E02D0994E6
S1131CB0AA1BBB1B51E107C0AA1FBB1FA617B7076E
S1131CC010F0A61BB70B881F991F5A95A9F780958A
S1131CD09095BC01CD0108958F929F92AF92BF92CF
S1131CE0CF92DF92EF92FF92CF93DF93EC01688162
S1131CF079818A819B81611571058105910521F4A2
S1131D0064E279ED8BE597E02DE133EF41E050E0BB
S1131D100E94C80E49015A019B01AC01A7EAB1E433
S1131D200E94E70E6B017C01ACEEB4EFA5019401B7
S1131D300E94F50EDC01CB018C0D9D1DAE1DBF1D57
S1131D40B7FF03C00197A109B04888839983AA8388
S1131D50BB839F77DF91CF91FF90EF90DF90CF907F
S1131D60BF90AF909F908F9008950E946C0E08953D
S1131D7080E091E00E946C0E0895A0E0B0E08093B2
S1131D80000190930101A0930201B093030108950F
S1131D90052E97FB1EF400940E94DF0E57FD07D01A
S1131DA00E94FA0E07FC03D04EF40C94DF0E5095FB
S1131DB04095309521953F4F4F4F5F4F0895909533
S1131DC08095709561957F4F8F4F9F4F08950E9426
S1131DD01C0FA59F900DB49F900DA49F800D911D85
S1131DE011240895B7FF0C94E70E0E94E70E821B9E
S1131DF0930B0895A1E21A2EAA1BBB1BFD010DC073
S1131E00AA1FBB1FEE1FFF1FA217B307E407F507A6
S1131E1020F0A21BB30BE40BF50B661F771F881F82
S1131E20991F1A9469F760957095809590959B0118
S1131E30AC01BD01CF010895A29FB001B39FC001C1
S1131E40A39F700D811D1124911DB29F700D811DE2
S10D1E501124911D0895F894FFCFAA
S1131E5A01000000FFFFFFFFFFFFFFFF0101013246
S1131E6A0B02092128070F010F010A010A0A0F7C34
S1131E7A637B774A5E6272767A314549595D616D50
S1131E8A717579182C3040444854585C60686C70F9
S1131E9A74781317272B2F3B3F43474F53575B5FE6
S1131EAA676B6F730E121622262A2E363A3E424664
S1131EBA4E52565A666A6E090D11151D2125292D91
S1131ECA35393D414D5155656904080C10141C20DF
S1131EDA242834383C644C5003070B0F1B1F23334C
S1111EEA374B02060A1A1E32010519010200C6
S9030000FC
