:100000000C9434000C9451000C9458030C9451003F
:100010000C9451000C9451000C9451000C9451001C
:100020000C9451000C9472010C9451000C945100EA
:100030000C9451000C9451000C94D8050C94510070
:100040000C9451000C9451000C9451000C945100EC
:100050000C9451000C9451000C9451000C945100DC
:100060000C9451000C94510011241FBECFEFD8E026
:10007000DEBFCDBF11E0A0E0B1E0E2ECFFE002C0E6
:1000800005900D92AA30B107D9F722E0AAE0B1E0BD
:1000900001C01D92A53CB207E1F70E9456060C94E0
:1000A000DF070C94000080930A0190910B018917DF
:1000B00069F1E0E2F1E02DE931E01192E217F30796
:1000C000E1F780930B01833089F028F4813041F00F
:1000D000823049F00895843061F08530A1F00895B0
:1000E0000E94F20108950E94120208950E945B018D
:1000F0000895E0E2F1E02DE931E081E08193E2173B
:10010000F307E1F708950E9493010895833071F396
:1001100028F4813029F3823031F30895843049F393
:10012000853089F3089580910A01813019F0823079
:1001300021F008950E94EC0108950E94AF020895F5
:100140000F931F93CF93DF93182F0E94DD06CEE904
:10015000D1E08883812F0E94E3068983812F0E944A
:100160006D068A83812F0E947D068B83812F0E94DA
:100170008B068C83812F0E94BD068D8388810E940F
:10018000DD0604EA11E0F801808388810E946D0693
:10019000F801818388810E947D06F801828388812D
:1001A0000E948B06F801838388810E94BD06F801B6
:1001B000848388810E94DD06F801878788810E94F8
:1001C0006D06F801808B88810E947D06F801818B85
:1001D00088810E948B06F801828B88810E94BD066F
:1001E000F801838B8A810E94DD06F80185838A816C
:1001F0000E946D06F80186838A810E94E306F80159
:1002000087838A810E948B06F80180878A810E94F9
:10021000BD06F80181878B810E94DD06F801828787
:100220008B810E947D06F80183878B810E94E30603
:10023000F80184878B810E948B06F80185878B816A
:100240000E94BD06F80186878C810E94DD06F801B8
:10025000848B8C810E947D06F801858B8C810E94A5
:10026000E306F801868B8C810E948B06F801878B50
:100270008C810E946D06F801808F8C810E94DD06C2
:10028000F801818F8C810E947D06F801828F8C811C
:100290000E94E306F801838F8C810E94BD06F8015D
:1002A000848F8C810E946D06F801858FDF91CF913C
:1002B0001F910F9108958FE30E94A000A4EAB1E07E
:1002C00022EC31E081E0ED91F0E0E05EFE4F8083D2
:1002D000A217B307C1F70895E82FF0E0E05EFE4FE4
:1002E000608308951F920F920FB60F9211248F937F
:1002F000809124028F5F80932402863029F48091BC
:1003000023028F5F80932302809123028A3029F495
:100310008091A2028F5F8093A2028F910F900FBEF7
:100320000F901F9018958F929F92AF92BF92CF928D
:10033000DF92EF92FF920F931F93CF93DF93809101
:1003400004018F30B9F51092040103EA12E0C2EB08
:10035000D2E00F2EF2EBAF2EF2E0BF2EF02D7E0199
:1003600048010F2EFDE7CF2ED12CF02D60E0F401D7
:1003700081914F010E946C010E946C07B6010E949E
:10038000F806F70181937F018A149B0479F70F2EF9
:10039000F1ECCF2EF2E0DF2EF02D7E0161E08991AD
:1003A0000E946C01F7018081F80181938F01CC15C7
:1003B000DD0599F7809104018F5F80930401DF913F
:1003C000CF911F910F91FF90EF90DF90CF90BF9052
:1003D000AF909F908F90089580910501815F8093E9
:1003E0000501089580910C01909105019817B0F4D2
:1003F00080910D01E82FF0E0E05EFE4FDF011197E4
:100400001C9291E0908310920C018F5F8E3719F04F
:1004100080930D01089510920D0108958F5F8093D0
:100420000C010895AF92BF92DF92EF92FF920F936B
:100430001F93CF93DF9380910F018F5F80930F0104
:1004400090910601891381C0A0E2B1E08DE991E0AD
:10045000FD011192E817F907E1F757C0E901599337
:100460009E01D5E0ED16F10414F4E50148837723ED
:100470000CF040833196DFEFAD1ABD0AE017F107AB
:1004800069F721E02D0D209310012530D9F521E0E9
:1004900020930E0124E02093100102C0213091F539
:1004A0001D928A179B07E1F710911001212F30E070
:1004B00049E1149FD0011124B9016F5F7F4F215092
:1004C0003109ED01C05EDE4FFD01E95FFE4FA75C23
:1004D000BE4FAE0191E082E09993653071050CF456
:1004E0008C9333230CF0808331961196E417F50733
:1004F00099F7115010931001111104C010920E01C0
:100500001092100110920F0120C020910E012111B4
:10051000C5CFD09010016D2D70E059E1D59EE0015E
:1005200011247B012FEFE21AF20A615071099E013A
:10053000205E3E4FFE01E95FFE4FAE01475C5E4F1D
:100540005A01890151E042E089CFDF91CF911F919B
:100550000F91FF90EF90DF90BF90AF900895809142
:100560000601865F80930601089580910701089532
:100570008FEF8BB9089580911201813011F41092A0
:10058000120180911801813021F40E949300109291
:10059000180180911901813069F4809107018F5F02
:1005A000863018F48093070103C081E0809307012F
:1005B0001092190180911701813061F48091070137
:1005C000815019F08093070103C085E080930701F3
:1005D0001092170108954A990EC08091140181115B
:1005E00010C081E080931701809314014D9909C0D8
:1005F0008093120106C080911401813011F4109291
:1006000014014D990EC080911601811110C081E036
:1006100080931901809316014A9909C080931201B1
:1006200006C080911601813011F4109216014B9989
:100630002EC080911501811105C081E080931801C1
:1006400080931501809111018F5F809311018F308C
:1006500031F5E99AE9E6F0E0808188608083EEE692
:10066000F0E080818D7F808380E00E94F30680E04F
:100670000E94F30680E00E94F30680E00E94F306E9
:100680005F9A5F9818B883B78E6083BF0895809192
:100690001501813021F41092150110921101089575
:1006A0000E94EB020E94BB0281E080931301089537
:1006B0001F920F920FB60F9211248F939F93EF9377
:1006C000FF938FE19EE40197F1F700C000004B9982
:1006D00005C0EEE6F0E0808182608083FF91EF91BB
:1006E0009F918F910F900FBE0F901F90189584B51A
:1006F000826084BD85B5836085BDEEE6F0E08081D3
:100700008260808384EB87BD089580911C018130D5
:1007100019F410921C01089580E0089580911B0146
:10072000813019F410921B01089580E008953F92E2
:100730004F925F926F927F928F929F92AF92BF92F1
:10074000CF92DF92EF92FF920F931F93CF93DF939D
:100750001092C2021092C4021092C1021092C302FF
:10076000823091F028F4882341F0813049F017C09D
:10077000833071F0843081F012C010921E010FC0DE
:1007800089E180931E010BC082E380931E0107C0A4
:100790008BE480931E0103C084E680931E01809148
:1007A0001E0190E0FC01E05EFE4FD081D13019F4D3
:1007B00021E02093C102FC01E05EFE4FC181C13007
:1007C00019F420E82093C302FC01E05EFE4FB281E1
:1007D000B13029F42091C30220642093C302FC01AC
:1007E000E05EFE4FA381A13029F42091C302206274
:1007F0002093C302FC01E05EFE4F448021E04212E0
:1008000005C02091C30220612093C3029C01205E99
:100810003E4FF9013580F1E03F1205C02091C3023F
:1008200028602093C3029C01205E3E4FF90176812F
:10083000713029F42091C30224602093C3029C01EB
:10084000205E3E4FF9016781613029F42091C30297
:1008500022602093C3029C01205E3E4FF901508527
:10086000513029F42091C30221602093C3029C01DE
:10087000205E3E4FF9014185413019F420E8209374
:10088000C2029C01205E3E4FF9013285313029F4CD
:100890002091C20220642093C2028C01005E1E4F90
:1008A000F8012385213029F41091C20210621093BF
:1008B000C2028C01005E1E4FF801F484F1E0FF12C9
:1008C00005C01091C20210611093C2028C01005E3B
:1008D0001E4FF801E584F1E0EF1205C01091C2024D
:1008E00018601093C2028C01005E1E4FF801D6847E
:1008F000F1E0DF1205C01091C20214601093C20231
:100900008C01005E1E4FF801C784F1E0CF1205C0D4
:100910001091C20212601093C2028C01005E1E4F41
:10092000F801B088F1E0BF1205C01091C202116059
:100930001093C2028C01005E1E4FF801A188F1E005
:10094000AF1203C010E81093C4028C01005E1E4F6A
:10095000F8019288F1E09F1205C01091C402106462
:100960001093C4028C01005E1E4FF8018388F1E0F1
:100970008F1205C01091C40210621093C4028C0142
:10098000005E1E4FF8017488F1E07F1205C01091DF
:10099000C40210611093C4028C01005E1E4FF80166
:1009A0006588F1E06F1205C01091C40218601093C1
:1009B000C4028C01005E1E4FF8015688F1E05F1200
:1009C00005C01091C40214601093C4028C01005E33
:1009D0001E4FF8011789113029F40091C4020260FA
:1009E0000093C402805E9E4FFC01908D913029F4EB
:1009F0008091C40281608093C40280911D01813086
:100A000009F0BDC0D23029F48091C1028160809389
:100A1000C102C23029F48091C30280688093C3026E
:100A2000B23029F48091C30280648093C302A23063
:100A300029F48091C30280628093C302F2E04F12D6
:100A400005C08091C30280618093C30282E03812A6
:100A500005C08091C30288608093C302723029F47C
:100A60008091C30284608093C302623029F4809134
:100A7000C30282608093C302523029F48091C30282
:100A800081608093C302423029F48091C202806861
:100A90008093C202323029F48091C2028064809334
:100AA000C202223029F48091C20280628093C20285
:100AB000E2E0FE1205C08091C20280618093C20212
:100AC000F2E0EF1205C08091C20288608093C202FA
:100AD00022E0D21205C08091C20284608093C202DB
:100AE00082E0C81205C08091C20282608093C20277
:100AF000E2E0BE1205C08091C20281608093C20212
:100B0000F2E0AF1205C08091C40280688093C402F5
:100B100022E0921205C08091C40280648093C402D6
:100B200082E0881205C08091C40280628093C40272
:100B3000E2E07E1205C08091C40280618093C4020D
:100B4000F2E06F1205C08091C40288608093C402F5
:100B500022E0521205C08091C40284608093C402D6
:100B6000123029F48091C40282608093C4029230D2
:100B700059F48091C40281608093C40205C08F5FE4
:100B800080931D01823011F410921D01DF91CF91ED
:100B90001F910F91FF90EF90DF90CF90BF90AF909B
:100BA0009F908F907F906F905F904F903F900895AF
:100BB0001F920F920FB60F9211242F933F934F93D2
:100BC0005F936F937F938F939F93AF93BF93EF93B5
:100BD000FF9380911A01833031F410921A0181E061
:100BE00080931C0103C08F5F80931A0180910801DC
:100BF000863931F41092080181E080931B0103C013
:100C00008F5F8093080118B880911F010E9497039D
:100C10008091C1020E94F3068091C3020E94F306F4
:100C20008091C2020E94F3068091C4020E94F306E2
:100C30005F9A5F9880911F01823071F028F48823B9
:100C400079F0813059F00DC0833021F0843049F4BF
:100C5000449A07C0439A05C0429A03C0419A01C012
:100C6000409A80911F018F5F853019F080931F019A
:100C700002C010921F01FF91EF91BF91AF919F9120
:100C80008F917F916F915F914F913F912F910F9035
:100C90000FBE0F901F90189584B1866084B98AB1F9
:100CA000806C8AB9209A8FEF87B908950E944C060C
:100CB0000E9477030E94E9060E94B80278940E947D
:100CC0008E0381110E9450030E9485038823B9F38B
:100CD0000E94B5020E945300F2CF9DEC899F912D96
:100CE000112496959695292F220F220F920F89177E
:100CF00011F0815008958EE70895282F90E0019615
:100D000065E070E00E94F806892B19F081E0820FFF
:100D100008958EE70895853030F1893138F0282F15
:100D200030E02951310925303105FCF0823338F0AB
:100D3000282F30E02253310925303105C4F08B349F
:100D400038F0282F30E02B543109253031058CF054
:100D5000843638F0282F30E024563109253031050B
:100D600054F0855008958EE708958EE708958EE734
:100D700008958EE708958EE708959CEE980F9530BC
:100D800090F093ED980F953080F09AEB980F953096
:100D900070F091EA980F953060F098E8980F9530D0
:100DA00050F08B5F08958EE708958EE708958EE7E3
:100DB00008958EE708958EE70895843610F4875ECF
:100DC00008958EE70895893110F0895108958EE7CE
:100DD000089584B1886284B985B1886285B98CB57B
:100DE00083658CBD08958EBD0DB407FEFDCF0895BB
:100DF00097FB072E16F4009407D077FD09D00E94C8
:100E00000C0707FC05D03EF4909581959F4F0895FF
:100E1000709561957F4F0895AA1BBB1B51E107C0D8
:100E2000AA1FBB1FA617B70710F0A61BB70B881F7A
:100E3000991F5A95A9F780959095BC01CD01089509
:100E40008F929F92AF92BF92CF92DF92EF92FF92DA
:100E5000CF93DF93EC01688179818A819B81611551
:100E600071058105910521F464E279ED8BE597E048
:100E70002DE133EF41E050E00E947C0749015A0127
:100E80009B01AC01A7EAB1E40E949B076B017C01C6
:100E9000ACEEB4EFA50194010E94A907DC01CB01DF
:100EA0008C0D9D1DAE1DBF1DB7FF03C00197A1098D
:100EB000B04888839983AA83BB839F77DF91CF91C2
:100EC000FF90EF90DF90CF90BF90AF909F908F906A
:100ED00008950E942007089580E091E00E94200775
:100EE0000895A0E0B0E08093000190930101A093E9
:100EF0000201B09303010895052E97FB1EF40094A0
:100F00000E94930757FD07D00E94AE0707FC03D04D
:100F10004EF40C94930750954095309521953F4F92
:100F20004F4F5F4F089590958095709561957F4FD5
:100F30008F4F9F4F08950E94D007A59F900DB49F9B
:100F4000900DA49F800D911D11240895B7FF0C945E
:100F50009B070E949B07821B930B0895A1E21A2E08
:100F6000AA1BBB1BFD010DC0AA1FBB1FEE1FFF1F4D
:100F7000A217B307E407F50720F0A21BB30BE40B9D
:100F8000F50B661F771F881F991F1A9469F76095E4
:100F90007095809590959B01AC01BD01CF0108959E
:100FA000A29FB001B39FC001A39F700D811D1124AA
:100FB000911DB29F700D811D1124911D0895F8940B
:020FC000FFCF61
:0A0FC20001000000010A0A0102000C
:00000001FF
