:100000000C9442000C945F000C94EC040C945F0080
:100010000C945F000C945F000C945F000C945F00E4
:100020000C945F000C948D010C945F000C945F00A5
:100030000C945F000C945F000C946C070C945F00B0
:100040000C945F000C945F000C945F000C945F00B4
:100050000C945F000C945F000C945F000C945F00A4
:100060000C945F000C945F007D008000830086008C
:10007000900093009F007D00800083008600900028
:1000800093009F0011241FBECFEFD8E0DEBFCDBF8D
:1000900011E0A0E0B1E0EAEFF2E102C005900D92BC
:1000A000AA30B107D9F722E0AAE0B1E001C01D9261
:1000B000AD3CB207E1F70E94EA070C947B090C946F
:1000C0000000E82F80930A0180910B01E817D1F11D
:1000D000A3E2B1E020EA31E01D92A217B307E1F7F5
:1000E000E0930B018E2F90E0FC013197E730F10592
:1000F000A0F5EC5CFF4F0C94A2080E947E030895CB
:100100000E949E0308950E9476010895E3E2F1E0C3
:1001100020EA31E081E08193E217F307E1F70895E7
:100120000E947A0208958091A0018F5F8093A001C0
:10013000843199F41092A0010E94D30208950E9484
:10014000300208958E2F90E0FC013197E730F105E1
:1001500020F4E55CFF4F0C94A208089580910A01F9
:10016000813019F0823021F008950E9478030895BB
:100170000E943B0408950F931F93CF93DF93182F92
:100180000E947308C1EAD1E08883812F0E94790818
:100190008983812F0E9403088A83812F0E9413087C
:1001A0008B83812F0E9421088C83812F0E9453080A
:1001B0008D8388810E94730807EA11E0F80180832B
:1001C00088810E940308F801818388810E941308B6
:1001D000F801828388810E942108F8018383888145
:1001E0000E945308F801848388810E947308F801F3
:1001F000878788810E940308F801808B88810E948C
:100200001308F801818B88810E942108F801828BF4
:1002100088810E945308F801838B8A810E947308A9
:10022000F80185838A810E940308F80186838A8108
:100230000E947908F80187838A810E942108F801C9
:1002400080878A810E945308F80181878B810E94F0
:100250007308F80182878B810E941308F801838755
:100260008B810E947908F80184878B810E94210884
:10027000F80185878B810E945308F80186878C815D
:100280000E947308F801848B8C810E941308F80186
:10029000858B8C810E947908F801868B8C810E9465
:1002A0002108F801878B8C810E940308F801808F58
:1002B0008C810E947308F801818F8C810E94130841
:1002C000F801828F8C810E947908F801838F8C81DC
:1002D0000E945308F801848F8C810E940308F80162
:1002E000858FDF91CF911F910F9108958FE30E9429
:1002F000BB00A7EAB1E025EC31E081E0ED91F0E050
:10030000ED5DFE4F8083A217B307C1F70895E82F74
:10031000F0E0ED5DFE4F608308951F920F920FB6DF
:100320000F9211248F93809127028F5F8093270271
:10033000863029F4809126028F5F80932602809177
:1003400026028A3029F48091A5028F5F8093A5024E
:100350008F910F900FBE0F901F901895AF92BF9284
:10036000CF92DF92EF92FF920F931F93CF93DF9381
:10037000CDB7DEB7C659D1090FB6F894DEBF0FBEB0
:10038000CDBF8E010F5F1F4F5E0187E9A80EB11C24
:1003900078010F2EFDE7CF2ED12CF02D0E940809F9
:1003A000B6010E948E08D7018D937D01AA15BB0569
:1003B000A9F7D80160E070E05FEF4D916F5F7F4F6C
:1003C000862F66397105E1F09B019C91491761F018
:1003D00013C0282F30E0E1E0F0E0EC0FFD1FE20F4A
:1003E000F31F9081491308C0E1E0F0E0EC0FFD1F1E
:1003F000E20FF31F5083E1CF8F5F863950F3DDCFDB
:10040000E8E2F2E09E0122583F4FD8018D918D0124
:100410008193A217B307C9F7CA56DF4F0FB6F894F6
:10042000DEBF0FBECDBFDF91CF911F910F91FF9027
:10043000EF90DF90CF90BF90AF9008950E94AE01F3
:10044000E1EBF0E0808187608083E0E7F0E080818D
:1004500081608083E4E6F0E0808180648083089599
:10046000CF938091A50280930C010E94AE01C0E061
:1004700061E08C2F0E948701CF5FCD37C9F734C070
:100480002091A502822F90E030910C01831B9109ED
:10049000181619064CF520930C0180910D018F3030
:1004A000A8F460E00E94870180910D0160E08F5FF9
:1004B0000E94870180910D0160E08E5F0E9487019C
:1004C00080910D018E5F80930D0109C060E00E9454
:1004D000870180910D0160E08F5F0E94870180910C
:1004E0000E018F5F80930E0180910E018D3340F2DB
:1004F000CF9108958F929F92AF92BF92CF92DF9249
:10050000EF92FF920F931F93CF93DF93809104019B
:100510008F30B9F51092040106EA12E0C5EBD2E083
:100520000F2EF5EBAF2EF2E0BF2EF02D7E0148012D
:100530000F2EFDE7CF2ED12CF02D60E0F40181913C
:100540004F010E9487010E940809B6010E948E088F
:10055000F70181937F018A149B0479F70F2EF4EC45
:10056000CF2EF2E0DF2EF02D7E0161E089910E9416
:100570008701F7018081F80181938F01CC15DD059A
:1005800099F7809104018F5F80930401DF91CF91EF
:100590001F910F91FF90EF90DF90CF90BF90AF90A1
:1005A0009F908F900895EF92FF920F931F93CF9398
:1005B000DF93CDB7DEB76A970FB6F894DEBF0FBEF4
:1005C000CDBF04EC12E0F80180819FEF980F998372
:1005D00091E0980F9A8394E0980F9B8395E0980F91
:1005E0009C8396E0980F9D839AEF980F9E839BEFD4
:1005F000980F9F839CEF980F988797EE980F998795
:1006000096EE980F9A8798EE980F9B879BEE980F1F
:100610009C879CEE980F9D879DEE980F9E8791EE8C
:10062000980F9F8792EE980F988B93EE980F998B67
:1006300099E1980F9A8B9AE1980F9B8B98E1980F0C
:100640009C8B9DE1980F9D8B9EE1980F9E8B9FE167
:10065000980F9F8B93E1980F988F94E1980F998F43
:100660008B5E8A8F0E9408096AE170E00E948E0802
:10067000FE01E80FF91FF180F8018181F8120BC02B
:100680008F2D90E001966AE170E00E948E08FE01D5
:10069000E80FF91FF18004EC12E060E0F8018481BA
:1006A0000E948701F8018381848382818383818111
:1006B000828380818183F0820F2EF9ECEF2EF2E0AD
:1006C000FF2EF02D61E0F80181918F010E948701DA
:1006D0000E151F05B9F76A960FB6F894DEBF0FBE68
:1006E000CDBFDF91CF911F910F91FF90EF900895B3
:1006F00080910501815F80930501089580910F012C
:10070000909105019817B0F480911001E82FF0E066
:10071000ED5DFE4FDF0111971C9291E090831092E6
:100720000F018F5F8E3719F080931001089510929A
:10073000100108958F5F80930F010895AF92BF92CB
:10074000DF92EF92FF920F931F93CF93DF938091ED
:1007500012018F5F8093120190910601891381C06D
:10076000A3E2B1E080EA91E0FD011192E817F907F8
:10077000E1F757C0E90159939E01D5E0ED16F10468
:1007800014F4E501488377230CF040833196DFEFC2
:10079000AD1ABD0AE017F10769F721E02D0D20938E
:1007A00013012530D9F521E02093110124E0209395
:1007B000130102C0213091F51D928A179B07E1F7C2
:1007C00010911301212F30E049E1149FD001112431
:1007D000B9016F5F7F4F21503109ED01CD5DDE4FD3
:1007E000FD01E65FFE4FA45CBE4FAE0191E082E0EA
:1007F0009993653071050CF48C9333230CF080834E
:1008000031961196E417F50799F7115010931301DB
:10081000111104C0109211011092130110921201D3
:1008200020C0209111012111C5CFD09013016D2D51
:1008300070E059E1D59EE00111247B012FEFE21A0F
:10084000F20A615071099E012D5D3E4FFE01E65F87
:10085000FE4FAE01445C5E4F5A01890151E042E017
:1008600089CFDF91CF911F910F91FF90EF90DF9093
:10087000BF90AF90089580910601865F8093060136
:1008800008958091070108958FEF8BB9E9E6F0E0B4
:10089000808188608083E99A089580911501813074
:1008A00011F41092150180911B01813021F40E94F6
:1008B000AE0010921B0180911C01813089F480915F
:1008C00007018F5F8093070110921C01883040F070
:1008D00081E08093070180911A018130A9F411C051
:1008E00080911A01813081F48091070181508093B9
:1008F000070110921A01811107C087E08093070158
:10090000089510921A01F9CF08954A990EC0809166
:100910001701811110C081E080931A0180931701A3
:100920004D9909C08093150106C08091170181304F
:1009300011F4109217014D990EC080911901811187
:1009400010C081E080931C01809319014A9909C06D
:100950008093150106C080911901813011F4109225
:1009600019014B9928C080911801811105C081E0BF
:1009700080931B0180931801809114018F5F8093F5
:1009800014018F3001F5EEE6F0E080818D7F8083E9
:1009900080E00E94890880E00E94890880E00E942F
:1009A000890880E00E9489085F9A5F9818B883B729
:1009B0008E6083BF089580911801813021F41092D8
:1009C00018011092140108950E9485040E944D049C
:1009D00081E08093160108951F920F920FB60F9237
:1009E00011248F939F93EF93FF938FE99FE00197DB
:1009F000F1F700C000004B9905C0EEE6F0E0808101
:100A000082608083FF91EF919F918F910F900FBE35
:100A10000F901F90189584B5826084BD85B5836062
:100A200085BDEEE6F0E080818260808384EB87BD47
:100A3000089580911F01813019F410921F010895CB
:100A400080E0089580911E01813019F410921E01FA
:100A5000089580E008953F924F925F926F927F9247
:100A60008F929F92AF92BF92CF92DF92EF92FF92BE
:100A70000F931F93CF93DF931092CA021092CC0270
:100A80001092C9021092CB02823091F028F4882390
:100A900041F0813049F017C0833071F0843081F02B
:100AA00012C0109221010FC089E1809321010BC077
:100AB00082E38093210107C08BE48093210103C06E
:100AC00084E6809321018091210190E0FC01ED5D9D
:100AD000FE4FD081D13019F421E02093C902FC01EE
:100AE000ED5DFE4FC181C13019F420E82093CB02A7
:100AF000FC01ED5DFE4FB281B13029F42091CB02B3
:100B000020642093CB02FC01ED5DFE4FA381A13058
:100B100029F42091CB0220622093CB02FC01ED5DF1
:100B2000FE4F448021E0421205C02091CB0220619B
:100B30002093CB029C012D5D3E4FF9013580F1E001
:100B40003F1205C02091CB0228602093CB029C016C
:100B50002D5D3E4FF9017681713029F42091CB0251
:100B600024602093CB029C012D5D3E4FF9016781EB
:100B7000613029F42091CB0222602093CB029C01AA
:100B80002D5D3E4FF9015085513029F42091CB0263
:100B900021602093CB029C012D5D3E4FF9014185E0
:100BA000413019F420E82093CA029C012D5D3E4F8C
:100BB000F9013285313029F42091CA022064209352
:100BC000CA028C010D5D1E4FF8012385213029F4E6
:100BD0001091CA0210621093CA028C010D5D1E4F63
:100BE000F801F484F1E0FF1205C01091CA0210610F
:100BF0001093CA028C010D5D1E4FF801E584F1E0EF
:100C0000EF1205C01091CA0218601093CA028C013D
:100C10000D5D1E4FF801D684F1E0DF1205C0109182
:100C2000CA0214601093CA028C010D5D1E4FF801B8
:100C3000C784F1E0CF1205C01091CA021260109370
:100C4000CA028C010D5D1E4FF801B088F1E0BF12A1
:100C500005C01091CA0211601093CA028C010D5D8B
:100C60001E4FF801A188F1E0AF1203C010E8109305
:100C7000CC028C010D5D1E4FF8019288F1E09F12AD
:100C800005C01091CC0210641093CC028C010D5D54
:100C90001E4FF8018388F1E08F1205C01091CC023D
:100CA00010621093CC028C010D5D1E4FF801748808
:100CB000F1E07F1205C01091CC0210611093CC02BC
:100CC0008C010D5D1E4FF8016588F1E06F1205C0C3
:100CD0001091CC0218601093CC028C010D5D1E4F58
:100CE000F8015688F1E05F1205C01091CC02146043
:100CF0001093CC028C010D5D1E4FF8011789113045
:100D000029F40091CC0202600093CC028D5D9E4FCD
:100D1000FC01908D913029F48091CC028160809308
:100D2000CC0280912001813009F0BDC0D23029F47D
:100D30008091C90281608093C902C23029F48091F8
:100D4000CB0280688093CB02B23029F48091CB0231
:100D500080648093CB02A23029F48091CB02806220
:100D60008093CB02F2E04F1205C08091CB028061EC
:100D70008093CB0282E0381205C08091CB0288605C
:100D80008093CB02723029F48091CB0284608093EF
:100D9000CB02623029F48091CB0282608093CB0237
:100DA000523029F48091CB0281608093CB02423093
:100DB00029F48091CA0280688093CA02323029F4F3
:100DC0008091CA0280648093CA02223029F4809103
:100DD000CA0280628093CA02E2E0FE1205C08091DE
:100DE000CA0280618093CA02F2E0EF1205C08091CE
:100DF000CA0288608093CA0222E0D21205C08091A4
:100E0000CA0284608093CA0282E0C81205C0809141
:100E1000CA0282608093CA02E2E0BE1205C08091DD
:100E2000CA0281608093CA02F2E0AF1205C08091CD
:100E3000CC0280688093CC0222E0921205C080919F
:100E4000CC0280648093CC0282E0881205C080913D
:100E5000CC0280628093CC02E2E07E1205C08091D9
:100E6000CC0280618093CC02F2E06F1205C08091C9
:100E7000CC0288608093CC0222E0521205C080919F
:100E8000CC0284608093CC02123029F48091CC0291
:100E900082608093CC02923059F48091CC028160C0
:100EA0008093CC0205C08F5F80932001823011F4C3
:100EB00010922001DF91CF911F910F91FF90EF9041
:100EC000DF90CF90BF90AF909F908F907F906F906A
:100ED0005F904F903F9008951F920F920FB60F9220
:100EE00011242F933F934F935F936F937F938F932F
:100EF0009F93AF93BF93EF93FF9380911D01833036
:100F000031F410921D0181E080931F0103C08F5FB7
:100F100080931D0180910801863931F410920801F7
:100F200081E080931E0103C08F5F8093080118B891
:100F3000809122010E942B058091C9020E9489089C
:100F40008091CB020E9489088091CA020E94890880
:100F50008091CC020E9489085F9A5F98809122015B
:100F6000823071F028F4882379F0813059F00DC077
:100F7000833021F0843049F4449A07C0439A05C075
:100F8000429A03C0419A01C0409A809122018F5F2A
:100F9000853019F08093220102C010922201FF9146
:100FA000EF91BF91AF919F918F917F916F915F91E1
:100FB0004F913F912F910F900FBE0F901F9018955A
:100FC00084B1866084B98AB1806C8AB9209A8FEF27
:100FD00087B908950E94E0070E940B050E947F08D0
:100FE0000E9444040E941E0278940E9422058111EE
:100FF0000E94E4040E9419058823B9F30E94410469
:101000000E946100F2CF9DEC899F912D112496954D
:101010009695292F220F220F920F891711F08150D8
:1010200008958EE70895282F90E0019665E070E01E
:101030000E948E08892B19F081E0820F08958EE7B7
:101040000895853030F1893138F0282F30E029516A
:10105000310925303105FCF0823338F0282F30E09B
:101060002253310925303105C4F08B3438F0282F54
:1010700030E02B543109253031058CF0843638F0BE
:10108000282F30E0245631092530310554F08550A1
:1010900008958EE708958EE708958EE708958EE708
:1010A00008958EE708959CEE980F953090F093ED9B
:1010B000980F953080F09AEB980F953070F091EA88
:1010C000980F953060F098E8980F953050F08B5F4E
:1010D00008958EE708958EE708958EE708958EE7C8
:1010E00008958EE70895843610F4875E08958EE79C
:1010F0000895893110F0895108958EE7089584B1DB
:10110000886284B985B1886285B98CB583658CBDE8
:1011100008958EBD0DB407FEFDCF089597FB072EF1
:1011200016F4009407D077FD09D00E94A80807FCA8
:1011300005D03EF4909581959F4F089570956195E7
:101140007F4F0895EE0FFF1F0590F491E02D099455
:10115000AA1BBB1B51E107C0AA1FBB1FA617B707DD
:1011600010F0A61BB70B881F991F5A95A9F78095F9
:101170009095BC01CD0108958F929F92AF92BF923E
:10118000CF92DF92EF92FF92CF93DF93EC016881D1
:1011900079818A819B81611571058105910521F411
:1011A00064E279ED8BE597E02DE133EF41E050E02B
:1011B0000E94180949015A019B01AC01A7EAB1E458
:1011C0000E9437096B017C01ACEEB4EFA5019401DC
:1011D0000E944509DC01CB018C0D9D1DAE1DBF1D7C
:1011E000B7FF03C00197A109B04888839983AA83F8
:1011F000BB839F77DF91CF91FF90EF90DF90CF90EF
:10120000BF90AF909F908F9008950E94BC08089562
:1012100080E091E00E94BC080895A0E0B0E08093D7
:10122000000190930101A0930201B093030108957E
:10123000052E97FB1EF400940E942F0957FD07D03E
:101240000E944A0907FC03D04EF40C942F095095D4
:101250004095309521953F4F4F4F5F4F08959095A2
:101260008095709561957F4F8F4F9F4F08950E9495
:101270006C09A59F900DB49F900DA49F800D911DAA
:1012800011240895B7FF0C9437090E943709821B77
:10129000930B0895A1E21A2EAA1BBB1BFD010DC0E2
:1012A000AA1FBB1FEE1FFF1FA217B307E407F50716
:1012B00020F0A21BB30BE40BF50B661F771F881FF2
:1012C000991F1A9469F760957095809590959B0188
:1012D000AC01BD01CF010895A29FB001B39FC00131
:1012E000A39F700D811D1124911DB29F700D811D52
:0A12F0001124911D0895F894FFCF1A
:0A12FA0001000000010A0A010200D1
:00000001FF
